:020000040000FA
:10000000B00D2020690200006D0200006F020000A8
:1000100000000000000000000000000000000000E0
:10002000000000000000000000000000710200005D
:100030000000000000000000730200009D3400007A
:1000400077020000770200007702000077020000CC
:1000500077020000770200007702000077020000BC
:10006000000000007702000077020000000000009E
:100070000000000077020000770200007702000015
:100080007702000077020000A13400007702000030
:10009000770200007702000000000000000000006E
:1000A000770200007702000000000000000000005E
:1000B00077020000000000007702000077020000D5
:1000C00000F002F800F0C1F812A030C80838241877
:1000D0002D18AC4201D100F0B8F80FCCA246AB46C7
:1000E0000CA730CF2D1B083F3F197C427F1E544484
:1000F0002D090426F441641EAC4201D300F0A5F89A
:100100000126334200D0FB1A3343984754465D46DC
:10011000DFE70000AC520000BC520000000000000D
:100120007047000000000000002300240025002686
:10013000103A01D378C1FBD8520700D330C100D5A3
:100140000B60704710B56E2902D100F05BFA10BD4C
:10015000702902D100F097FB10BD662902D103F08F
:100160008BFB10BD652902D103F086FB10BD67290A
:1001700002D103F081FB10BD612902D103F084FBA1
:1001800010BD03681B0A01D380231943692902D1DA
:1001900000F002FA10BD642902D100F0FDF910BD93
:1001A000752902D100F0F8F910BD6F2902D100F0D5
:1001B00015FB10BD782902D100F052FB10BDE929D2
:1001C00002D100F0B1FA10BDE42902D100F0ACFA7E
:1001D00010BDF52902D100F0A7FA10BDEF2902D118
:1001E00000F008FB10BDF82902D100F047FB10BD5C
:1001F0000368DB0901D380231943632902D101F08D
:100200002AF810BD732902D101F02DF810BDE329A1
:1002100002D101F037F810BDF32902D101F03AF80C
:1002200010BD002010BD1FB501F094F8040000209F
:10023000002103F00BFB401C60600020002103F054
:10024000EFFAE0601FBD10B510BD01F05CF811467B
:10025000FFF7E9FF03F05EFA01F0F0FB03B4FFF7EC
:10026000F2FF03BC01F04EFC06480047FEE7FEE744
:10027000FEE7FEE7FEE7FEE703480449044A054BB4
:1002800070470000C1000000B0052020B00D202004
:10029000B0092020B00920207CB51D4616460C0070
:1002A000009007D04142A14202D30019401E01E054
:1002B0000020C043064B7B442A46694601903046E5
:1002C00000F0B9F9002C02D0009A002111707CBD19
:1002D000A3030000002203098B4273D3030A8B425D
:1002E00058D3030B8B423CD3030C8B4221D312E037
:1002F00003460B437FD4002243088B4274D3030987
:100300008B425FD3030A8B4244D3030B8B4228D327
:10031000030C8B420DD30902FF2212BA030C8B424D
:1003200002D31212090265D0030B8B4219D300E0ED
:10033000090AC30B8B4201D3CB03C01A5241830B72
:100340008B4201D38B03C01A5241430B8B4201D322
:100350004B03C01A5241030B8B4201D30B03C01A4B
:100360005241C30A8B4201D3CB02C01A5241830AC5
:100370008B4201D38B02C01A5241430A8B4201D3F4
:100380004B02C01A5241030A8B4201D30B02C01A1E
:100390005241CDD2C3098B4201D3CB01C01A524185
:1003A00083098B4201D38B01C01A524143098B420E
:1003B00001D34B01C01A524103098B4201D30B01F7
:1003C000C01A5241C3088B4201D3CB00C01A52411C
:1003D00083088B4201D38B00C01A524143088B42E1
:1003E00001D34B00C01A5241411A00D2014652417A
:1003F000104670475DE0CA0F00D04942031000D399
:10040000404253409C46002203098B422DD3030AED
:100410008B4212D38901FC2212BA030A8B420CD3FD
:10042000890192118B4208D3890192118B4204D326
:1004300089013AD0921100E08909C3098B4201D3A6
:10044000CB01C01A524183098B4201D38B01C01AE0
:10045000524143098B4201D34B01C01A5241030957
:100460008B4201D30B01C01A5241C3088B4201D306
:10047000CB00C01A524183088B4201D38B00C01AB3
:100480005241D9D243088B4201D34B00C01A52418A
:10049000411A00D201465241104663465B1001D317
:1004A0004042002B00D54942704763465B1000D3A1
:1004B000404201B50449002802DC491C084000E024
:1004C0000846C046C04602BDFFFFFF7F7047704729
:1004D000704770B5044685690068C10601D53026AD
:1004E00000E02026C00707D070BD62683046A168D2
:1004F0009047206A401C20626D1EF6D570BD70B515
:10050000044685690078C00707D170BD6268A1689C
:1005100020209047206A401C20626D1EF6D570BDD9
:1005200009684A0501D540B27047C905FCD500B23B
:10053000704709684A0501D5C0B27047C905FCD5A6
:1005400080B2704770B50C460546012A05D0287860
:10055000800600D5EA69002302E0012305E05B1C68
:10056000934202D2E05C0028F9D1A869E618C01ACB
:10057000A861286AC01828622846FFF7AAFF04E08D
:100580006A682078A968641C9047B442F8D328466A
:10059000FFF7B5FF70BD0000F7B50025752910689D
:1005A000009914A611D0FFF7BBFF002802DA4042E1
:1005B00011A608E0009909688A0701D50FA602E094
:1005C000490704D50EA6012501E0FFF7B2FF009F01
:1005D0000024243704E000F082FE30313955641CD9
:1005E0000028F8D12B4632462146009800F059FAEF
:1005F000FEBD0000000000002D0000002B000000E8
:100600002000000011680268006A530501D50870D7
:1006100009E0D30501D5088005E0130602D5C2170D
:1006200005C100E0086001207047000001694A1C14
:1006300002610878704700B58FB0029100210591E2
:10064000054901937944039111460490684600F0EE
:1006500027F90FB000BD0000E5FFFFFF0CC9083906
:100660009A4202D2531C0B6010707047F7B50446D3
:10067000154686B02B487844002703C83E460090B4
:10068000019111E007986A467100415A02A800F0F2
:1006900005FE411C07D02178890603D5E269391887
:1006A00091420ED83F18761C2078800602D5E0696A
:1006B000B84206DDAE42E5DB07987100405A0028DB
:1006C000E0D1A069C01BA0612046FFF702FF1548DA
:1006D00078445A3803C800900020019116E0410088
:1006E0006A460798415A02A800F0D8FD0590401CC0
:1006F0000AD0002505E0626802A8A168405D904725
:100700006D1C05988542F6D30498401CB0420490B5
:10071000E5DB206AC01920622046FFF7F0FE09B031
:10072000F0BD00001E320000F7B5D21D0025D20832
:1007300015A6D200F52905CA11D0002A05DA002134
:100740004042914111A60A4608E0009909688B07CA
:1007500001D50FA602E0490701D50EA601251146D5
:10076000009F0024243704E000F05EF930323A554F
:10077000641C02460A43F7D12B46324621460098B4
:1007800000F08FF9FEBD0000000000002D00000009
:100790002B0000002000000070B504460021243426
:1007A00008E05507D2086D0F303565545D072A43C0
:1007B000DB08491C15461D43F3D10468002310A231
:1007C000250708D520252C400C4304D0C4690123FB
:1007D0000CA2641EC46100F064F970BD10B504463B
:1007E00021461068FFF7A5FE002302462046FFF7CA
:1007F000D3FF10BDD21DD108C9000CC9CCE7000041
:100800000000000030000000F8B50F46018809051F
:1008100002D5224C7C4402E0204C7C440E34054638
:100820000021243508E016071209360FA65D6E5424
:100830001E0732431B09491C16461E43F3D12246AC
:1008400004780023240705D5702F06D0002901D095
:100850000223113200F025F9F8BD01231032F9E727
:1008600070B504460D4621461068FFF762FE00236E
:10087000024629462046FFF7C7FF70BDD21DD308A8
:10088000DB000CCBC0E730B403682024126823439C
:1008900003600823C36130BC0023B5E78830000043
:1008A000F3B50446002081B020622046E168884705
:1008B000002872D0252802D06268A168ABE0594FA9
:1008C00000267F442046E16888472028054608DB4B
:1008D000312D06D2781920380078002801D006433F
:1008E000F0E7B00701D5042086430020E061074609
:1008F000A0612A2D0AD0284602F08AFF002827D0BE
:10090000B8000019303D0090856119E00298BA00E6
:10091000121902C8916102902046E1688847012FB0
:10092000054617D1E06900281FDA202086431CE025
:1009300000980A218069484300994019303888613D
:100940002046E1688847054602F062FF0028EFD1A3
:10095000012F0AD02E2D08D12046E1688847054690
:10096000202006437F1C022FC3DBA069002803DA86
:100970004042A06101200643F00701D010208643C9
:100980006C2D0BD0682D09D04C2D3CD06A2D38D061
:10099000742D38D07A2D36D016E040E0E1682F462D
:1009A00020468847B842054609D16C2F29D001203E
:1009B0008002E168064320468847054604E06C2F24
:1009C0001DD0FF2001300643002D28D02846413895
:1009D000192803D80120C00206432035204626608E
:1009E0002946029A1646FFF7ADFB002810D00128D1
:1009F0000BD0F61DF008C0000830029055E74020EB
:100A0000E1E78020D5E70020D3E7361D02964CE7CA
:100A100062682846A1689047206A401C44E7206A23
:100A2000FEBD0000023000000B4670B5024689078B
:100A30008008084319469D08141AA941250908078A
:100A4000054308092C194841250A01060D43010AEE
:100A50002C194141200C0D0428430D0C00194D4167
:100A6000002140194D41C00869070843E908840F77
:100A70008D002543840024184D4124196D41121B1B
:100A8000AB4107E00925ED432C11521963410024C5
:100A9000401C61411C460A250026551BB441F1D279
:100AA00070BDFFB504460D4681B02430009021682A
:100AB000880604D51022E0699143216000E00120FE
:100AC000A84201DD471B00E000270498A1697A19BC
:100AD0001018081AA0612078C00602D42046FFF73B
:100AE000F8FC002608E003986268A168805D9047E2
:100AF000206A401C761C206204988642F3DB207832
:100B0000C0060AD52046FFF7E4FC06E06268A1684B
:100B100030209047206A401C206238467F1E002803
:100B2000F4DC07E000986268A168405D9047206AA5
:100B3000401C206228466D1E0028F3DC2046FFF78B
:100B4000DEFC2078000602D5022005B0F0BD0120B1
:100B5000FBE70000FFB50C461E468FB003CA0890A5
:100B600009914F007D0D00D16D1E00210846002027
:100B7000C0460321099A89050840002A03DA820049
:100B8000801840080840800D01280A9002DD0020EE
:100B9000C0430A90089807430DD0F048F049281840
:100BA00048430714189800281DD07542291E1DDDE2
:100BB0000A9842421BE01898012802D000203021F8
:100BC00004E00020F24305E02154401CB042FBDB6E
:100BD00030460022189B002121540F998B600A6037
:100BE000486013B0F0BDBD1B6D1CDFE70A9A0029F9
:100BF00000DA69420BA800F0F5FB0BAB07CB03ABA7
:100C000007C30899099800F059FC6B4607C30146D1
:100C1000D4480918002D00910BDDD24903980A9A97
:100C200049424018002303A90390684600F0B6FE2D
:100C300008E003990A9A0023081803A9039068465C
:100C400000F056FE6B4607C30004000C03D00020E2
:100C5000C043410800E01046189A002A03D0002241
:100C6000009215461EE0751E05D4FFF7DDFE3032FA
:100C700062556D1EF9D501220843079602D0002265
:100C80007F1C04E02078302801D100227F1E002A3A
:100C9000069787D01EE0112D07DAFFF7C5FE303228
:100CA00062556D1C02460A43F5D1084303D00098F3
:100CB000002819D00EE00021681E05E0235C625C6C
:100CC00063542254401E491C8142F7DBA81B401E7E
:100CD00007950690079A18990020A0540F98079B33
:100CE000069A81600CC07CE711260020189059E715
:100CF000D21DF0B50D460446D10893B0C90003C912
:100D00000C900D9102F06EFD02460D98C00F01D0BF
:100D10002D2007E02068810701D52B2002E0400745
:100D2000C00F4001032A0F9001D0072A05DB0346BC
:100D30002946204600F012FB0EE12078800601D5FE
:100D4000E76900E006272846652D04D0662814D000
:100D5000672D69D12DE00020112F009001DB1123B8
:100D600000E07B1C0CAA03A910A8FFF7F3FE119961
:100D7000002610987D1C0E9142E001203B460CAAF3
:100D8000C0070B900120009003A910A8FFF7E2FE16
:100D9000119D12981099002600280E9501D1781CFB
:100DA0000D18781B02D446427D1C761EE81B00906D
:100DB0003AE0012F00DA01270020112F009001DD19
:100DC000112300E03B460CAA03A910A8FFF7C2FEBE
:100DD00011993D46109800260E91217809070BD4F1
:100DE0000E99A94200DA0D4603A9012D04DD4A1926
:100DF000203AD27F302A06D0B84201DA011D04DA47
:100E0000012100910FE06D1EEFE7002802DC86193A
:100E10002D1A03E0411CA94200DD0D46801B401C39
:100E200000900120C0070B902078000705D400989F
:100E3000A84202DB0020C043009069460020C8722F
:100E40000B98012102AF0337C907884225D0022041
:100E500010902B2011900B9800280BDA40420B9039
:100E60002D20119006E00B9800F039FA30317F1EEA
:100E70000B9039701099481E00291090F3DC0B98E4
:100E80000028F0D111987F1E38702088000501D508
:100E9000452000E065207F1E387001A8C01BC01DE2
:100EA0000B900F98002800D0012041190098C0171E
:100EB00009180B980818A169081A401EA06120782B
:100EC000C00602D42046FFF704FB0F98002805D087
:100ED0006268A1689047206A401C20622078C006A2
:100EE00025D52046FFF7F5FA21E0002E07DB0E9806
:100EF000B04204DD03A86268805DA16802E0626818
:100F0000A16830209047206A761C401C206200981F
:100F1000401E002800900AD100F01CFAC0686268E8
:100F20000168405CA1689047206A401C2062284606
:100F30006D1E0028D9DC07E062683878A1687F1C44
:100F40009047206A401C20620B99481E00290B9094
:100F5000F2DC2046FFF7D3FA032042E601FCFFFF54
:100F6000104D0000E1DFFFFFD21DF0B504460D4635
:100F7000D0088DB0C000466807683146384602F098
:100F800031FC0246F00F01D02D2307E020688107D5
:100F900001D52B2302E04007C00F43016846002B18
:100FA000037001D0012000E00020032A0A9001D044
:100FB000072A04DB2946204600F0D0F92DE12078ED
:100FC000800601D40D2500E0E5697000400D0D2D6F
:100FD00001904BDA300D00210B9008460020C046EE
:100FE000032189050840002E05DA82008018C20F0F
:100FF0001018401008408015012801DD0020C04372
:10100000A9000023182906D39C460A460123183A52
:101010001B07D34003E001221205CA4094460C315D
:10102000202902D33A46203900E032468A4000287F
:1010300002DD002A06D119E0002817D10121C907D5
:101040008A4213D3194663467F185E41002806D1B1
:101050000120C007824202D1084687439E430B9875
:10106000310D814202D00198401C0190208800057A
:1010700002D57149794402E06F49794419396B46C8
:101080000A9830221A540A980A7C401C1A54401CB0
:101090000A900198002801DC302000E0312018720D
:1010A000019A0120002A02D0644BD21804E0720099
:1010B0003A4302D0614A521C0192002D02DC227890
:1010C000120703D56A462E2050720220002286465F
:1010D00094460CE032033601120F6D1E8B5C02AA9F
:1010E00013546246521C401C9446052A01DA002D16
:1010F000F0DC002202AE08E03B0F3F01CB5C521C4B
:101100006D1E3354401C082A01DA002DF4DC2368DC
:101110009A0601D511E0401E704504DD3218203AD0
:10112000D27F302AF7D0002807DD3218203AD27F4C
:101130002E2A02D11A0700D4401E002D03DD3E22C4
:101140003254401C6D1E497C31540199401C0029C9
:1011500006DA2D21471C315401984042019003E0EA
:101160002B21471C315401987D21C900884206DBA0
:10117000FFF7BEF83030F0557F1C019101E0642884
:1011800008DB01986421FFF7B3F83030F0557F1C7D
:10119000019101E00A2806DB01980A21FFF7A8F86F
:1011A0003030F0557F1C01980A21FFF7A1F830314B
:1011B000F1550A98A1697F1C7A191018081AA061C4
:1011C0002078C00602D42046FFF783F9216A6E46D4
:1011D0000A980818206204E062683078A168761CDA
:1011E00090470A98401E0A90401CF5D12078C0060E
:1011F00002D52046FFF76DF902AE09E03078761C83
:101200003E280DD06268A1689047206A401C206289
:101210007F1EF3D22046FFF772F90DB00320F0BD18
:10122000206A4019206203E06268A168302090477C
:101230006D1EEDD3F8E700007428000001FCFFFFED
:1012400010B54369002B02D0C046C04601E0FFF74D
:1012500079F9012010BD1278014624310A7000226C
:101260004A700122ECE711680022D243E8E710B58A
:101270004369002B02D0C046C04601E0FFF7F6F9F3
:10128000012010BD12880146243182840022C284CC
:101290000122ECE711680022D243E8E7F8B51646D0
:1012A0000C46054600F04EF80368FF200230C05C93
:1012B000012807D0FF2C0FD8185D00280CD0012082
:1012C0002C70F8BDFF333246214608331868C71822
:1012D00028460023B847F8BD0020C043F8BD0146AA
:1012E0008008081A02091018020A1018020C1018B7
:1012F000C008820012185200891A01E0401C0A3905
:101300000A29FBD27047754600F0A0FBAE460500E7
:1013100069465346C008C000854618B020B5FEF7A0
:10132000ABFF60BCB64600260027C0C5C0C5C0C51F
:10133000C0C5C0C5C0C5C0C5C0C5403D49084900FD
:101340008D46704710B500F005F8001D10BD00BFB8
:10135000FD2400000048704720002020F8B51F46FB
:10136000044601230068DB02032601461840072AD1
:1013700005DB002801D017A506E017A504E000282A
:1013800001D016A500E016A5102081432160A069B8
:10139000C01E002FA06101D0401EA0612046FFF7B3
:1013A00098F8002F09D038466268A1689047206AF3
:1013B000401C2062C01C206206E0206AFAE76268D6
:1013C0002878A1686D1C9047761EF8D22046FFF75A
:1013D00096F8F8BD4E414E006E616E00494E4600D3
:1013E000696E6600F7B516468AB0334878446C4695
:1013F00003467C33C06F5A689B680DC42E487844FE
:10140000763003AC0DC80DC43720C0010818372151
:101410001B30FEF76DFF05460C46803D1B3C02D598
:101420006442012000E000200027099010E0E0075E
:101430000CD00C2020497843794432464C3941186D
:101440006846012300F054FA6B4607C364107F1C02
:10145000002CECD1184F7F442E3F16E0E80712D045
:101460002001C0190EC80691089307920068F04247
:1014700001D1981908903246012306A903A800F06B
:1014800037FA03AB07C36D10641C002DE6D1099831
:10149000002806D032466946012303A800F07EFAF0
:1014A00005E001233246694603A800F021FA0A9BB1
:1014B00007C30DB0F0BD000010250000034640003A
:1014C0000A4610B5400D0BD00121C9070F24A40214
:1014D00000191C0364082143540D2143D20207E084
:1014E00000210120F2E7D40F490021435200401EA1
:1014F0000029F8DADB0FDB07184310BDFFB50D46F6
:10150000144685B04868516802F054F90091019082
:10151000A868A16802F04EF902910390A86861687A
:1015200002F048F9029A12188242029201D2012076
:1015300000E00020019A0B18D2180028019202D076
:101540008A4202D903E08A4201D2012000E0002051
:101550000099081800906868A16802F02BF9029AB7
:1015600012188242029201D2012000E00020019A6A
:101570000B18D2180028019202D08A4202D903E047
:101580008A4201D2012000E0002000990818009052
:101590002868216840004900400849084018FA4975
:1015A000471814E001994000C90F084300900198C2
:1015B00002994000C90F0843019002980399400026
:1015C000C90F08430290039840007F1E03900098C3
:1015D0000028E7DA0898002801D0EC4E00E0002649
:1015E000B74201DA012000E00020002804902AD050
:1015F000F71BF806C00E15D0029B2021091A039A8A
:101600008B401A430392029A019BC2408B401A43BB
:101610000292019A009BC2408B4000991A430192AA
:10162000C14000917B110DD06F460320C11A03D534
:1016300000218200B95003E08A008100BA587A5034
:10164000401EF3D5374603980299002800D00120A8
:10165000014308980291002808460CD0002800D0C9
:1016600001200199019A490508430121D20AC902C2
:10167000D202019200E001210E9B0122D207012B30
:1016800002D0002B03D013E0002807D120E09042C5
:1016900004D890420CD1019B0B4209D0019B5918F0
:1016A000019105D10099491C009101D17F1C009244
:1016B00000280DD0102108460020C04604980028BC
:1016C00006D00F98002803D0082108460020C04605
:1016D00028682168019B009A4840C10F0598C907F6
:1016E00039430EC009B0F0BDFFB587B0099A08981C
:1016F0000899536892684068896896460022039367
:1017000017469446089A12685300099A5B081268B3
:10171000520052089A1A9E4BD4180A9A002A01D0F5
:10172000352200E040220692002201231546049251
:10173000DB07059324E0002D05D175460346039E83
:101740004D1BB34109D375466646039B491B049D57
:101750009841059B7519AC465F4163463B4308D0F1
:10176000059B049EDD0776082E435B0804960593CF
:1017700001E0521E641EC50FED0749184041521C7E
:10178000069B9A42D7DB002D04D17546039A6B1A4B
:10179000824101D203200CE0039A0B466B40424089
:1017A000134303D0014303D0012002E0022000E0F4
:1017B0000020614601910021009702910A990029B9
:1017C00005D0614640020143704B019102E0800761
:1017D000002302909C4201DA012000E00020070073
:1017E0003AD01A1BD006C00E15D0029D2021019CB4
:1017F000091AC5408C402543029C8C4000D001242E
:101800002543019C0295009DC4408D4000992C43C6
:101810000194C140009154111DD06D460221002257
:1018200002290CD10320001B07E0002804DB8600FE
:10183000AE59002E00D00122401C0328F5DB081B06
:1018400002D588002A5004E08000285810438A00FE
:10185000A850491EE3D51C460A98002802980CD0CF
:10186000002800D001200199019A4905084301216F
:10187000D20AC902D202019200E00121109B01228A
:10188000D207012B02D0002B03D013E0002807D190
:101890001FE0904204D890420CD1019B0B4209D02A
:1018A000019B5918019105D10099491C009101D162
:1018B000641C009200280CD0102108460020C0466D
:1018C000002F06D01198002803D0082108460020D8
:1018D000C04608980999019A009B00680968484029
:1018E000C10F0798C907214382600AC00BB0F0BD41
:1018F00000B585B0019300920A460146002302A874
:10190000FFF7FCFD02A807C805B000BDFFB50A46F9
:101910001F4685B00799019301230091014602A853
:10192000FFF7ECFD02990398049ECA0F4900D20705
:1019300000920F22490892028C1A0021002800DB35
:101940000C46450013486D08844214D3079A002AB8
:1019500004DA441E0026104DF64302E004460D460C
:101960000E46102108460020C046002F03D0042157
:1019700008460020C0462005E90A084300990843AC
:101980006905F20A1143ADE602C0FFFF013C000009
:10199000FF3F0000FF070000FFFFFF7F00B585B09D
:1019A000019300920A460146002302A8FFF79CFE1D
:1019B00002A807C8A8E7FFB50A461F4685B00799E1
:1019C000019301230091014602A8FFF78DFE0299C1
:1019D0000398049ECA0F4900D20700920F224908BB
:1019E00092028C1A0021002800DB0C4645001148A9
:1019F0006D08844214D3079A002A04DA441E002694
:101A00000D4DF64302E004460D460E4610210846F1
:101A10000020C046002F03D0042108460020C04605
:101A20002005E90A0843009908436905F20A1143B1
:101A300058E60000FF070000FFFFFF7F10B50446D7
:101A4000C046C0462046FEF709FC10BD004870475E
:101A50000000202082078B079A423FD170B5920F79
:101A60000AD0032402780B78401C491C002A33D08A
:101A70009A4231D12042F5D1214EF40104C808C95F
:101A8000951B9543254018D19A420FD104C808C927
:101A9000951B9543254010D19A4207D104C808C927
:101AA000951B9543254008D19A42E7D012BA1BBA3C
:101AB00001209A4200D2404270BD12BA1BBA2DBA20
:101AC00018241000E0401900E140401A05D12E0012
:101AD000E64002D1083CF4D1D01A70BD02780B78F0
:101AE000401C491C002A09D09A4207D102780B7881
:101AF000401C491C002A01D09A42EFD0D01A7047EE
:101B00000101010101491820ABBEFEE726000200D9
:101B10007047811E091F00BFFCD2704710B5002A14
:101B20000FD091235B01C3180020DC692405240F2A
:101B300005D00C5C1C60401C8242F6D1104680B27D
:101B400010BD002080B210BD70B50A780C231A4079
:101B50000124240305196E689E43B2186A6049780F
:101B600007221140035993435918015170BD0000D9
:101B7000F0B584B0012422022A4B196803929143E4
:101B8000196049490D686D04FCD5457E25409E6964
:101B9000A64374199C612024045D03252C40DE6952
:101BA000AE433419DC61204C256805262660466A60
:101BB00037681F6276685E6207262E402660C46919
:101BC0007F252D02DE69AE436406640C3419DC61A6
:101BD0000768456882680092C66802690192426996
:101BE00002929A69114C14403A07120B2D03ADB2C0
:101BF000AA183243009D2D072D0D1543019A154358
:101C0000029A1543007E2843094A02401019986140
:101C10001868039A1043186008688005FCD504B062
:101C2000F0BDC04608010B40001340408D00F0FF9E
:101C300072FF0F00F0B5124B1D46083D2E680124BF
:101C4000A6432E600326360330401F68B74338187A
:101C500018601868FF26B043C9B240181860286899
:101C60002043286018682107002A06D0084318601E
:101C70000D480168C905FCD5F0BD88431860F0BD6A
:101C800010010B4007498860074802689202FCD5A2
:101C9000012212040B6813430B600168C906FCD5CE
:101CA0007047C04604010B4004020B40B0B54A68BF
:101CB000364BC250364A80180A78222A58D89300E8
:101CC00001A4E3589F46C046671D0000711D000037
:101CD000671D0000711D0000711D0000711D0000D6
:101CE000711D0000711D0000711D0000711D0000BC
:101CF000711D0000711D0000711D0000711D0000AC
:101D0000711D0000711D0000551D0000711D0000B7
:101D1000551D0000711D0000711D0000711D0000A7
:101D2000711D0000711D0000711D0000711D00007B
:101D3000711D0000711D0000711D0000711D00006B
:101D4000711D0000711D0000551D0000711D000077
:101D5000551D000003231B0704689C4301235B07F8
:101D6000E318036004E003231B0704689C4304603A
:101D70000B69C360CB68074C1C40C36A064D1D400D
:101D80002B19C362097A11430160B0BD0818000025
:101D900004180000777702008888FDFF10B5012243
:101DA000120383180C789C604B7883508978014A21
:101DB000815010BD0C110000F0B587B001A90026BC
:101DC0000E71CE708E708D2048700E7033480222D6
:101DD000FFF7A4FE3F4D2868800608D428688006D7
:101DE00005D42868800602D428688006F3D52F46DB
:101DF000083F38682A490840783038602C1F20682E
:101E00002849084028494018206003A90E71CE7067
:101E10008E70142048700E7002222048FFF77EFE5C
:101E20002868800608D42868800605D428688006BB
:101E300002D428688006F3D538681949084078210B
:101E40000091084338602068164908401649084345
:101E5000206005A90E71CE708E70AF2048700E7094
:101E600002220E48FFF75AFE2868800608D4286828
:101E7000800605D42868800602D428688006F3D539
:101E800038680749084000990843386020680549C8
:101E9000084005490843206007B0F0BD00000F402E
:101EA00000F8FFFFF8FF00F007000200F0B585B072
:101EB00003A900270F71CF708F70AE2048700F708C
:101EC000034C02222046FFF729FE024E04E0C046E2
:101ED00000000F4018120F403068800608D43068A8
:101EE000800605D43068800602D430688006F3D5B9
:101EF0003546083D28680A49084078302860311F77
:101F00000868084A1040084A80180291086003A92E
:101F10000F71039702222046FFF700FE06E0C0463D
:101F200000F8FFFFF8FF00F00700020030688006AD
:101F300008D43068800605D43068800602D4306842
:101F40008006F3D528680C490840782101910843A0
:101F5000286002990868094A1040094A104308603D
:101F600003A90F71CF708F70102048700F7002227C
:101F70002046FFF7D3FD05E000F8FFFFF8FF00F073
:101F8000070002003068800608D43068800605D457
:101F90003068800602D430688006F3D528680C4982
:101FA000084001990843286002990868094A1040CE
:101FB000094A1043086003A90F71CF708F70402049
:101FC00048700F7002222046FFF7A8FD06E0C046C9
:101FD00000F8FFFFF8FF00F00700020030688006FD
:101FE00008D43068800605D43068800602D4306892
:101FF0008006F3D528680C490840019908432860F9
:1020000002990868094A1040094A1043086003A968
:102010000F71CF708F70812048700F7002222046A0
:10202000FFF77CFD06E0C04600F8FFFFF8FF00F078
:10203000070002003068800608D43068800605D4A6
:102040003068800602D430688006F3D528680C49D1
:10205000084001990843286002990868094A10401D
:10206000094A1043086003A90F71CF708F70CF2009
:1020700048700F7002222046FFF750FD06E0C04670
:1020800000F8FFFFF8FF00F007000200306880064C
:1020900008D43068800605D43068800602D43068E1
:1020A0008006F3D528680C49084001990843286048
:1020B00002990868094A1040094A1043086003A9B8
:1020C0000F71CF708F70A12048700F7002222046D0
:1020D000FFF724FD06E0C04600F8FFFFF8FF00F020
:1020E000070002003068800608D43068800605D4F6
:1020F0003068800602D430688006F3D528680C4921
:10210000084001990843286002990868094A10406C
:10211000094A1043086003A90F71CF708F70C8205F
:1021200048700F7002222046FFF7F8FC06E0C04618
:1021300000F8FFFFF8FF00F007000200306880069B
:1021400008D43068800605D43068800602D4306830
:102150008006F3D528680C49084001990843286097
:1021600002990868094A1040094A1043086003A907
:102170000F71CF708F70A62048700F70022220461A
:10218000FFF7CCFC06E0C04600F8FFFFF8FF00F0C8
:10219000070002003068800608D43068800605D445
:1021A0003068800602D430688006F3D528680C4970
:1021B000084001990843286002990868094A1040BC
:1021C000094A1043086003A90F71CF708F70A820CF
:1021D00048700F7002222046FFF7A0FC06E0C046C0
:1021E00000F8FFFFF8FF00F00700020030688006EB
:1021F00008D43068800605D43068800602D4306880
:102200008006F3D528680C490840019908432860E6
:1022100002990868094A1040094A1043086003A956
:102220000F71CF708F703F2048700F7002222046D0
:10223000FFF774FC06E0C04600F8FFFFF8FF00F06F
:10224000070002003068800608D43068800605D494
:102250003068800602D430688006F3D528680C49BF
:10226000084001990843286002990868094A10400B
:10227000094A1043086003A90F71CF708F70D320F3
:1022800048700F7002222046FFF748FC06E0C04667
:1022900000F8FFFFF8FF00F007000200306880063A
:1022A00008D43068800605D43068800602D43068CF
:1022B0008006F3D528680A49084001990843286038
:1022C00002990868074A1040074A1043086003A9AA
:1022D0000F71039702222046FFF720FC06E0C0465C
:1022E00000F8FFFFF8FF00F00700020030688006EA
:1022F00008D43068800605D43068800602D430687F
:102300008006F3D528680C490840019908432860E5
:1023100002990868094A1040094A1043086003A955
:102320000F71CF708F70D52048700F700222204639
:10233000FFF7F4FB06E0C04600F8FFFFF8FF00F0EF
:10234000070002003068800608D43068800605D493
:102350003068800602D430688006F3D528680C49BE
:10236000084001990843286002990868094A10400A
:10237000094A1043086003A90F71CF708F70802441
:102380004C700F7002220548FFF7C8FB08E0C046FA
:1023900000F8FFFFF8FF00F00700020000000F4008
:1023A0003068800608D43068800605D4306880061E
:1023B00002D430688006F3D528680C49084001999A
:1023C0000843286002990868094A1040094A1043E6
:1023D000086003A90F71CF708F70D92048700F70FB
:1023E00002220548FFF79AFB08E0C04600F8FFFF0D
:1023F000F8FF00F00700020000000F403068800680
:1024000008D43068800605D43068800602D430686D
:102410008006F3D528680C490840019908432860D4
:1024200002990868094A1040094A1043086003A944
:102430000F71CF708F70F12048700F700222054825
:10244000FFF76CFB08E0C04600F8FFFFF8FF00F064
:102450000700020000000F403068800608D4306892
:10246000800605D43068800602D430688006F3D533
:1024700028680C49084001990843286002990868B7
:10248000094A1040094A1043086003A90F71CF7030
:102490008F70DA2048700F7002220548FFF73EFB6C
:1024A00008E0C04600F8FFFFF8FF00F00700020058
:1024B00000000F403068800608D43068800605D4DC
:1024C0003068800602D430688006F3D528680C494D
:1024D000084001990843286002990868094A104099
:1024E000094A1043086003A90F71CF708F70122042
:1024F00048700F7002220548FFF710FB08E0C04645
:1025000000F8FFFFF8FF00F00700020000000F4096
:102510003068800608D43068800605D430688006AC
:1025200002D430688006F3D528680C490840019928
:102530000843286002990868094A1040094A104374
:10254000086003A90F71CF708F70DB2048700F7087
:1025500002220548FFF7E2FA08E0C04600F8FFFF54
:10256000F8FF00F00700020000000F40306880060E
:1025700008D43068800605D43068800602D43068FC
:102580008006F3D528680C49084001990843286063
:1025900002990868094A1040094A1043086003A9D3
:1025A0000F71CF708F70302048700F700222054875
:1025B000FFF7B4FA08E0C04600F8FFFFF8FF00F0AC
:1025C0000700020000000F403068800608D4306821
:1025D000800605D43068800602D430688006F3D5C2
:1025E00028680D4908400199084300952860029920
:1025F00008680A4A10400A4A1043086003A90F718C
:10260000CF708F70202048700F70022505482A4631
:10261000FFF784FA08E0C04600F8FFFFF8FF00F07B
:102620000700020000000F403068800608D43068C0
:10263000800605D43068800602D430688006F3D561
:10264000009908680B4A1040019A104308600299EB
:102650000868094A1040094A1043086003A90F712D
:10266000CF708F704D700F7005482A46FFF756FAED
:1026700008E0C04600F8FFFFF8FF00F00700020086
:1026800000000F403068800608D43068800605D40A
:102690003068800602D430688006F3D5009D286833
:1026A0000B49084001990843286002990868094AC3
:1026B0001040094A1043086003A90F71CF708F7052
:1026C0008D2048700F7002220448FFF727FA07E0B8
:1026D00000F8FFFFF8FF00F00700020000000F40C5
:1026E0003068800608D43068800605D430688006DB
:1026F00002D430688006F3D528680C490840019957
:102700000843286002990868094A1040094A1043A2
:10271000086003A90F71CF708F70142048700F707C
:1027200002220548FFF7FAF908E0C04600F8FFFF6B
:10273000F8FF00F00700020000000F40306880063C
:1027400008D43068800605D43068800602D430682A
:102750008006F3D528680849084001990843286095
:1027600002990868054A1040054A10430860054868
:102770000246F83208E0C04600F8FFFFF8FF00F01C
:1027800007000200620020201770114608390F7000
:10279000114610390F70114618390F701146203943
:1027A0000F70114628390F70114630390F701146DD
:1027B00038390F70114640390F70114648390F7083
:1027C000114650390F70114658390F701146603953
:1027D0000F70114668390F70114670390F7011462D
:1027E00078390F70114680390F70114688390F7093
:1027F000114690390F70114698390F701146A03963
:102800000F701146A8390F701146B0390F7011467C
:10281000B8390F701146C0390F701146C8390F70A2
:102820001146D0390F701146D8390F701146E03972
:102830000F701146E8390F701146F0390F701146CC
:10284000F8390F70012109025218203C9CD103462F
:10285000F93380221F701C46083C27701C46103C30
:1028600027701C46183C27701C46203C27701C46CD
:10287000283C27701C46303C27701C46383C27708B
:102880001C46403C27701C46483C27701C46503C68
:1028900027701C46583C27701C46603C27701C461D
:1028A000683C27701C46703C27701C46783C27709B
:1028B0001C46803C27701C46883C27701C46903C78
:1028C00027701C46983C27701C46A03C27701C466D
:1028D000A83C27701C46B03C27701C46B83C2770AB
:1028E0001C46C03C27701C46C83C27701C46D03C88
:1028F00027701C46D83C27701C46E03C27701C46BD
:10290000E83C27701C46F03C27705C18F83B1F70B1
:10291000203A23469ED10346FA3380221F701C467C
:10292000083C27701C46103C27701C46183C27703A
:102930001C46203C27701C46283C27701C46303C17
:1029400027701C46383C27701C46403C27701C46AC
:10295000483C27701C46503C27701C46583C27704A
:102960001C46603C27701C46683C27701C46703C27
:1029700027701C46783C27701C46803C27701C46FC
:10298000883C27701C46903C27701C46983C27705A
:102990001C46A03C27701C46A83C27701C46B03C37
:1029A00027701C46B83C27701C46C03C27701C464C
:1029B000C83C27701C46D03C27701C46D83C27706A
:1029C0001C46E03C27701C46E83C27701C46F03C47
:1029D00027705C18F83B1F70203A23469ED10346AF
:1029E000FB3380221F701C46083C27701C46103C9D
:1029F00027701C46183C27701C46203C27701C463C
:102A0000283C27701C46303C27701C46383C2770F9
:102A10001C46403C27701C46483C27701C46503CD6
:102A200027701C46583C27701C46603C27701C468B
:102A3000683C27701C46703C27701C46783C277009
:102A40001C46803C27701C46883C27701C46903CE6
:102A500027701C46983C27701C46A03C27701C46DB
:102A6000A83C27701C46B03C27701C46B83C277019
:102A70001C46C03C27701C46C83C27701C46D03CF6
:102A800027701C46D83C27701C46E03C27701C462B
:102A9000E83C27701C46F03C27705C18F83B1F7020
:102AA000203A23469ED10346FC3380221F701C46E9
:102AB000083C27701C46103C27701C46183C2770A9
:102AC0001C46203C27701C46283C27701C46303C86
:102AD00027701C46383C27701C46403C27701C461B
:102AE000483C27701C46503C27701C46583C2770B9
:102AF0001C46603C27701C46683C27701C46703C96
:102B000027701C46783C27701C46803C27701C466A
:102B1000883C27701C46903C27701C46983C2770C8
:102B20001C46A03C27701C46A83C27701C46B03CA5
:102B300027701C46B83C27701C46C03C27701C46BA
:102B4000C83C27701C46D03C27701C46D83C2770D8
:102B50001C46E03C27701C46E83C27701C46F03CB5
:102B600027705C18F83B1F70203A23469ED103461D
:102B7000FD3380221F701C46083C27701C46103C09
:102B800027701C46183C27701C46203C27701C46AA
:102B9000283C27701C46303C27701C46383C277068
:102BA0001C46403C27701C46483C27701C46503C45
:102BB00027701C46583C27701C46603C27701C46FA
:102BC000683C27701C46703C27701C46783C277078
:102BD0001C46803C27701C46883C27701C46903C55
:102BE00027701C46983C27701C46A03C27701C464A
:102BF000A83C27701C46B03C27701C46B83C277088
:102C00001C46C03C27701C46C83C27701C46D03C64
:102C100027701C46D83C27701C46E03C27701C4699
:102C2000E83C27701C46F03C27705C18F83B1F708E
:102C3000203A23469ED10346FE3380221F701C4655
:102C4000083C27701C46103C27701C46183C277017
:102C50001C46203C27701C46283C27701C46303CF4
:102C600027701C46383C27701C46403C27701C4689
:102C7000483C27701C46503C27701C46583C277027
:102C80001C46603C27701C46683C27701C46703C04
:102C900027701C46783C27701C46803C27701C46D9
:102CA000883C27701C46903C27701C46983C277037
:102CB0001C46A03C27701C46A83C27701C46B03C14
:102CC00027701C46B83C27701C46C03C27701C4629
:102CD000C83C27701C46D03C27701C46D83C277047
:102CE0001C46E03C27701C46E83C27701C46F03C24
:102CF00027705C18F83B1F70203A23469ED1FF30A6
:102D0000802207700346083B1F700346103B1F706C
:102D10000346183B1F700346203B1F700346283BA9
:102D20001F700346303B1F700346383B1F7003463D
:102D3000403B1F700346483B1F700346503B1F70CB
:102D40000346583B1F700346603B1F700346683BB9
:102D50001F700346703B1F700346783B1F7003468D
:102D6000803B1F700346883B1F700346903B1F70DB
:102D70000346983B1F700346A03B1F700346A83BC9
:102D80001F700346B03B1F700346B83B1F700346DD
:102D9000C03B1F700346C83B1F700346D03B1F70EB
:102DA0000346D83B1F700346E03B1F700346E83BD9
:102DB0001F700346F03B1F704318F8380770203A25
:102DC00018469ED100F05CF803A90F71CF708F7088
:102DD000AF2048700F7002229C48FEF79FFE3068BB
:102DE000800608D43068800605D43068800602D496
:102DF00030688006F3D52868974908400199084350
:102E0000286002990868934A10408F4A104308606E
:102E100005B0F0BDF0B595B0039315460C460646D7
:102E20001AAB049305AF40213846039AFDF734FAF4
:102E30000290397808462038C0B25E281CD8082D88
:102E400002D02F466B0801E02F46062305A8451C3B
:102E5000039401200090F0B2CAB203991C463B468D
:102E600000F0FEF823463619681C29780A46203AF5
:102E7000D2B25F2A0546ECD3029815B0F0BD00002F
:102E8000F0B58BB009A8851C09A8801C049009A87E
:102E9000801C039009A8801C029000206C4F0190B8
:102EA000034603E05B1C082B00D1CBE00298019A9B
:102EB00082704270027009A90A7005931846503852
:102EC000487002226148FEF729FE3868800608D45F
:102ED0003868800605D43868800602D438688006D1
:102EE000F3D53A46083A10685B49084078210791C3
:102EF0000843089210603A1F10685649084052492A
:102F000008430692106009A900240C71099402225A
:102F10004E48FEF703FE3868800608D438688006FD
:102F200005D43868800602D438688006F3D5089A3C
:102F3000106849490840079908431060069A1068CC
:102F40004449084040490843106003988470447025
:102F500004700120000309A908800222FB48FEF743
:102F6000DDFD3868800608D43868800605D43868E6
:102F7000800602D438688006F3D5089A106836496E
:102F80000840079908431060069A106831490840C4
:102F90002D4908431060049884704470047009A996
:102FA0002E4808800222E948FEF7B8FD38688006FE
:102FB00008D43868800605D43868800602D438689A
:102FC0008006F3D5089A10682349084007990843FA
:102FD0001060069A10681F4908401B49084310609A
:102FE0002646059B12E0089A10681B49084007997D
:102FF00008431060069A10681649084012490843B1
:103000001060761C802E059B00D14BE7F000AD4987
:103010000818C05CAC706C702C7009A94870402016
:1030200008700222C948FEF779FD38688006DAD4B4
:1030300038688006D7D438688006D4D438688006CB
:10304000F3D5D0E70BB0F0BD0700020000000F4041
:1030500018120F40F8FF00F000F8FFFF404000009A
:10306000F0B58BB00A9103900620082B04460AD0D5
:103070005C07D908002C00D0491C5C084C43E4B222
:10308000002C00D113E1109F203AD1B200914843A7
:1030900088490A18580801900025039E0293089752
:1030A00009E00646079C049A069D641E521C6D1C8E
:1030B000002C00D1FBE0082B104615D0182B09D0AE
:1030C000102B0CD00C2B00D0F1E00C2000994843C1
:1030D0007B4907E0242000994843774902E00098A3
:1030E0000001764908184019099006950492079442
:1030F00007230A9A10461840012529468140059663
:10310000F0B2C0006F4C2018D2B2D408065D32462F
:103110000A438E43002F114600D03146002F00D0C5
:1031200016460022099FBA560992D20700D03146AE
:1031300001550A99491CCAB219402F468F40D4083C
:10314000065D31463943BE43089F002F0A4600D032
:103150003246002F00D00E460999890700D5324625
:1031600002550A99891CCAB219402F468F40D408CB
:10317000065D31463943BE43089F002F0A4600D002
:103180003246002F00D00E460999490700D5324635
:1031900002550A99C91CCAB219402F468F40D4085B
:1031A000065D31463943BE43089F002F0A4600D0D2
:1031B0003246002F00D00E460999090700D5324645
:1031C00002550A99091DCAB219402F468F40D408EA
:1031D000065D31463943BE43089F002F0A4600D0A2
:1031E0003246002F00D00E460999C90600D5324656
:1031F00002550A99491DCAB219402F468F40D4087A
:10320000065D31463943BE43089F002F0A4600D071
:103210003246002F00D00E460999890600D5324665
:1032200002550A99891DCAB219402F468F40D40809
:10323000065D31463943BE43089F002F0A4600D041
:103240003246002F00D00E460999490600D5324675
:1032500002550A99C91D0B409D40C9B2CC08025DB8
:103260001146A9431543002F0A4600D02A46002FD5
:10327000029B059E00D00D460999002900D42A46DC
:103280000255701C082B00D10BE7C1B2039A891AB2
:10329000019A9142079C02D10A9A08320A92049A32
:1032A000019DA942039E00D1FEE60646FCE60BB056
:1032B000F0BDC046943900002046000030400000B8
:1032C000BC3B0000620020200A480021416281626C
:1032D0000949016041600121490602680A43026010
:1032E00042680A434260054805490165016001647E
:1032F000416070470480424083000C00908042404F
:1033000081000E0080B511481149FEF71DFC032015
:103310004102104802680A43026001210A02036860
:10332000134303600022426109224262826B072339
:103330009A4382631A02836B93438363826A0423F2
:1033400013438362826A0A43826280BD00000F4099
:103350007C53000000120F4070B515480024046033
:103360000F200002134D29688143012250020818E2
:1033700028600320C1432B1F1E680E401E60696831
:103380009143696011026B688B436B6000030A21F3
:10339000FEF750FC0848FEF7EBFB286810210143BC
:1033A0002020814329602046FEF76CFC70BDC0469A
:1033B00008030B4004010B408053000008480949F2
:1033C0004160FF210906084A13688B4303218907DE
:1033D0005918116000218160072101607047C046C3
:1033E00010E000E07F38010020ED00E010B50B4C4C
:1033F0000B492046FEF7D2FC0A492046FEF756FC50
:1034000009480168012211430160FF2000040749B7
:103410000B6883430B600648026010BD00008640C5
:10342000A8530000AC5300002810864010E400E0D0
:103430000811864080B500F011F8FFF745FFFFF74F
:103440008BFFFFF7D3FFFFF75DFFFFF7B7FFB82054
:10345000014900220A5480BDE404202010B5094827
:1034600009494160094A5160094B5960094C616042
:10347000094901601160196021601020FEF749FBC5
:1034800010BDC04600080A40030000B100280A40F1
:103490000008864000080F40010000267047000029
:1034A00080B50D480068C0B2012814D10B480178DE
:1034B000491C01700A480178491C017009480278CA
:1034C000521C027008480288521C0280C8B20A28A6
:1034D00001D300F00BF880BD20108640A805202005
:1034E000E2042020A0052020AA052020B0B58848AD
:1034F000046802E00140E170A46A002C00D106E1FA
:103500002079A1688847E278510702D02188491CB8
:103510002180D109884203D1C720024011460EE024
:10352000C7211140D3085B1C07251D40EB0059182B
:10353000E170032D04D347210A40C0011118E17046
:1035400007200840052806D87844007940008744C1
:10355000041B355D026DF820CCE7A2780F201040E7
:103560004A06D20FCBB2DB09934272D1A070E26857
:10357000002A00D1BBE020469047A17801200843F3
:103580000E218843E178B3E04806C00FCAB2D209E1
:10359000824262D12088C928AED3A0780F2202408F
:1035A0005032A270226A002A02D020469047E17869
:1035B000F8200840401DE070A46A9EE74806C00F4E
:1035C000CAB2D20982425BD1A0780F252840A070F0
:1035D000E168002902D020468847A07801462940AA
:1035E0000F2905D0F0210140401C28404018A07050
:1035F0006169002901D02046884700202080E078BA
:10360000F8210140C81CE070A46A76E74806C00FA4
:10361000CAB2D209824244D120883D2800D26BE749
:10362000F8200140481CE070A46A66E7A2780F20E9
:1036300010404A06D20FCBB2DB09934247D160302B
:10364000A070616A002900D156E720468847A46A25
:1036500053E78030A070A46A4FE7A0780F220240A1
:103660001032A2702269002A02D020469047E178E9
:1036700000202080F8200840801CE070A46A3CE70D
:1036800020883D2800D237E7A2780F20104002287A
:1036900037D0012823D13120A070A269002A1BD184
:1036A0001DE0A0780F2101401031A170216900298F
:1036B00001D02046884720883B2815D8002020804C
:1036C000E078F8210140881CE070A46A15E710300A
:1036D000A0702269002A02D020469047E178F820A5
:1036E0000840E070A46A08E7E078F82102E70120CA
:1036F000A07000202080F8200840401CE070A46AE0
:10370000FBE64220A070E269002AE5D1E7E7B0BD00
:10371000A4052020FFF78EFEFEF7C8FBFEF74CFB4A
:1037200000F03CF800F002F8FCE7000080B582B041
:1037300011480078012809D000281AD10F480078D4
:10374000009052200021082212A30EE00B480178BD
:10375000FE220A40022A01D10021017008480078A7
:1037600000900020082207A30146FFF753FBFFF754
:1037700087FB02B080BDC046A90520206100202043
:10378000600020204D6F64655F73656C6563742015
:10379000256400004B65793A2564200001208004EF
:1037A00002490860024908607047C04680E200E0B4
:1037B00000E100E0F8B5040C8BB2264682B25E430D
:1037C000104658430D0C370C36040021801916465C
:1037D00079416E43370C36048019264679416E4391
:1037E0008919F8BD4900CA020243100000D0042024
:1037F0004A0D01D001221043044A490D914201D1E2
:1038000002210843012800D105207047FF0700006E
:1038100030380A2801D2012070470020704700008C
:1038200010B500290AD00878002807D00548784448
:10383000FEF710F9002801D0002010BD024878449E
:1038400010BD0000A21B00009A1B000010B500294B
:103850000AD00878002807D005487844FEF7FAF81F
:10386000002801D0002010BD0248784410BD00009F
:10387000921B00008A1B000003B40248784484466F
:1038800003BC604771D4FFFF03B402487844844608
:1038900003BC6047D9D6FFFF000000000000000015
:1038A0003031323334353637383941424344454676
:1038B0004030580030313233343536373839616270
:1038C0006364656640307800040000080000000072
:1038D0000000000200010000103031323334353670
:1038E000373839616263646566787000303132332D
:1038F0003435363738394142434445465850000044
:1039000002400000000000A0000000000540000090
:10391000000000C8000000000C4000000000409CB7
:1039200000000000194000000020BCBE00000000A4
:1039300034400000BFC91B8E00000004B5400000E9
:10394000504BCFD06607E2CF010000006C41000071
:103950003E8251AADFEEA73401000000D9420000E8
:10396000DCB5A0E23A301F97FFFFFFFFB44500002F
:10397000FD25A0C8E9A3C14FFFFFFFFFFF3F0000E7
:103980000000008000000000FF3F000000000080F9
:10399000000000000000000000000000002F0000F8
:1039A00000000700070000147F147F1400242A7F02
:1039B0002A12006264081323003649552250000081
:1039C0000503000000001C224100000041221C00F1
:1039D0000014083E08140008083E0808000000A073
:1039E000600000080808080800006060000000206F
:1039F00010080402003E5149453E0000427F40004D
:103A0000004261514946002141454B3100181412D2
:103A10007F10002745454539003C4A49493000019F
:103A20007109050300364949493600064949291EEE
:103A30000000363600000000563600000008142250
:103A40004100001414141414000041221408000250
:103A50000151090600324959513E007C1211127C75
:103A6000007F49494936003E41414122007F4141A2
:103A7000221C007F49494941007F09090901003E94
:103A80004149497A007F0808087F0000417F4100D2
:103A9000002040413F01007F08142241007F404048
:103AA0004040007F020C027F007F0408107F003E30
:103AB0004141413E007F09090906003E4151215E16
:103AC000007F091929460046494949310001017F13
:103AD0000101003F4040403F001F2040201F003FA9
:103AE0004038403F0063140814630007087008075B
:103AF00000615149454300007F41410000552A556E
:103B00002A55000041417F000004020102040040E8
:103B1000404040400000010204000020545454780A
:103B2000007F48444438003844444420003844442A
:103B3000487F00385454541800087E0901020018C8
:103B4000A4A4A47C007F080404780000447D400005
:103B5000004080847D00007F102844000000417FE9
:103B60004000007C04180478007C080404780038C5
:103B70004444443800FC242424180018242418FC4D
:103B8000007C0804040800485454542000043F44B6
:103B90004020003C4040207C001C2040201C003C79
:103BA0004030403C004428102844001CA0A0A07CC9
:103BB000004464544C441414141414140000000001
:103BC00000000000000000000000FC0000000000F9
:103BD00002000000000C020C0200000000000000C7
:103BE00090D0BCD0BC900003000300001824FE4419
:103BF0008C000302070201001824D8B04C80000397
:103C000000010201C038E438E000010202010202B2
:103C1000080600000000000000000000000000F89E
:103C20000402000000010204000204F80000000485
:103C3000020100009060F8609000000001000000A8
:103C40002020FC20200000000100000000000000F7
:103C500000000806000000002020202020000000B6
:103C60000000000000000000000000020000000052
:103C70000080601C0200040300000000F80404043B
:103C8000F8000102020201000008FC00000000022E
:103C900003020000188444241800030202020200F8
:103CA00008042424D80001020202010040B088FC6C
:103CB00080000000000302003C242424C400010210
:103CC00002020100F824242CC000010202020100BB
:103CD0000C04E41C0400000003000000D824242489
:103CE000D80001020202010038444444F8000003F5
:103CF00002020100000010000000000002000000AD
:103D00000000200000000000060000000020508895
:103D100004020000000001029090909090000000CA
:103D20000000000000020488502000020100000092
:103D30001804C4241800000002000000F804E494F1
:103D4000F80001020202020000E09CF08000020381
:103D50000000030204FC2424D80002030202010034
:103D6000F80404040C0001020202010004FC040433
:103D7000F80002030202010004FC24740C00020398
:103D80000202030004FC24740C0002030200000081
:103D9000F0080444CC4000010202010004FC202091
:103DA000FC040203000003020404FC0404000202F9
:103DB00003020200000404FC0404060404030000DF
:103DC00004FC24D00C0402030200030204FC0400DF
:103DD0000000020302020203FC3CC03CFC000300A2
:103DE0000300030004FC30C4FC04020302000300CF
:103DF000F8040404F80001020202010004FC242477
:103E00001800020302000000F8848404F800010294
:103E10000207050004FC2464980002030200030268
:103E2000182424448C000302020201000C04FC0448
:103E30000C0000020302000004FC0000FC0400016E
:103E400002020100047C80E01C040000030000006A
:103E50001CE03CE01C00000300030000049C609C8C
:103E60000400020300030200041CE01C0400000222
:103E7000030200000C84641C04000203020203001D
:103E80000000FE020200000007040400000E30C023
:103E90000000000000010200000202FE0000000419
:103EA00004070000000402040000000000000000FD
:103EB00000000000000008080808080800000200D0
:103EC00000000000000000000040A0A0C0000001B1
:103ED0000202030204FC2020C000000302020100D1
:103EE00000C02020600000010202020000C0202467
:103EF000FC0000010202030200C0A0A0C0000001FB
:103F0000020202000020F82424040002030202003E
:103F10000040A0A0602000070A0A0A0404FC202038
:103F2000C0000203020003020020E40000000002BF
:103F300003020000000020E4000008080807000059
:103F400004FC80E020200203020003020404FC00C1
:103F50000000020203020200E020E020C000030093
:103F60000300030020E02020C0000203020003023F
:103F700000C02020C00000010202010020E020203B
:103F8000C000080F0A02010000C02020E00000016C
:103F9000020A0F0820E04020200002030200000077
:103FA0000060A0A020000002020203000020F82010
:103FB000000000000102020020E00020E0000001FB
:103FC0000202030220E020806020000003010000C4
:103FD0006080E080600000030003000020608060DB
:103FE000200002030003020020E020806020080877
:103FF000070100000020A060200000020302020070
:10400000000020DE0200000000070400000000FFA6
:1040100000000000000F00000002DE20000000048D
:10402000070000000201020404020000000000007A
:104030000000000000000000000000000000000080
:10404000000000F800000000000000333000000015
:1040500000100C06100C060000000000000000001C
:1040600040C07840C0784000043F04043F0404008E
:10407000007088FC08300000001820FF211E00009E
:10408000F008F000E018000000211C031E211E00B3
:1040900000F00888700000001E2123241927211039
:1040A00010160E00000000000000000000000000DC
:1040B000000000E018040200000000071820400083
:1040C00000020418E0000000004020180700000073
:1040D000404080F0804040000202010F01020200D7
:1040E000000000F0000000000101011F01010100BB
:1040F000000000000000000080B070000000000020
:1041000000000000000000000001010101010101A8
:10411000000000000000000000303000000000003F
:104120000000000080601804006018060100000014
:1041300000E010080810E000000F102020100F0011
:10414000001010F8000000000020203F2020000098
:1041500000700808088870000030282422213000F0
:1041600000300888884830000018202020110E00F8
:104170000000C02010F8000000070424243F2400A1
:1041800000F80888880808000019212020110E0076
:1041900000E0108888180000000F112020110E0088
:1041A00000380808C83808000000003F0000000080
:1041B0000070880808887000001C222121221C0041
:1041C00000E010080810E0000000312222110F006A
:1041D000000000C0C00000000000003030000000FF
:1041E000000000800000000000008060000000006F
:1041F0000000804020100800000102040810200088
:1042000040404040404040000404040404040400D2
:104210000008102040800000002010080402010067
:10422000007048080808F000000000303601000067
:10423000C030C828E810E0000718272423140B001A
:104240000000C038E0000000203C23020227382094
:1042500008F8888888700000203F202020110E0078
:10426000C03008080808380007182020201008006F
:1042700008F808080810E000203F202020100F0058
:1042800008F88888E8081000203F20202320180024
:1042900008F88888E8081000203F2000030000008C
:1042A000C03008080838000007182020221E02002D
:1042B00008F808000008F808203F210101213F20EC
:1042C000000808F8080800000020203F2020000017
:1042D00000000808F8080800C08080807F00000007
:1042E00008F888C028180800203F20012638200040
:1042F00008F8080000000000203F202020203000A7
:1043000008F8F800F8F80800203F003F003F2000C0
:1043100008F830C00008F808203F200007183F00C8
:10432000E01008080810E0000F10202020100F00F7
:1043300008F808080808F000203F210101010000EA
:10434000E01008080810E0000F18242438504F002F
:1043500008F8888888887000203F2000030C3020EF
:1043600000708808080838000038202121221C002D
:10437000180808F8080818000000203F2000000076
:1043800008F808000008F808001F202020201F005F
:104390000878880000C83808000007380E010000BF
:1043A000F80800F80008F800033C0700073C030089
:1043B000081868808068180820302C03032C3020EF
:1043C0000838C800C83808000000203F200000005E
:1043D00010080808C83808002038262120201800B6
:1043E000000000FE020202000000007F404040008A
:1043F000000C30C000000000000000010638C000C2
:1044000000020202FE000000004040407F00000069
:10441000000004020202040000000000000000008E
:10442000000000000000000080808080808080808C
:104430000002020400000000000000000000000074
:1044400000008080808000000019242222223F206A
:1044500008F8008080000000003F112020110E00AD
:104460000000008080800000000E1120202011003C
:10447000000000808088F800000E112020103F20EE
:104480000000808080800000001F22222222130072
:10449000008080F0888888180020203F20200000BD
:1044A0000000808080808000006B94949493600072
:1044B00008F8008080800000203F210000203F207D
:1044C00000809898000000000020203F202000007D
:1044D000000000809898000000C08080807F00006D
:1044E00008F8000080808000203F24022D3020004A
:1044F000000808F8000000000020203F20200000F5
:104500008080808080808000203F20003F20003F0E
:104510008080008080800000203F210000203F201C
:104520000000808080800000001F202020201F00CD
:10453000808000808000000080FFA12020110E00FC
:104540000000008080808000000E112020A0FF80ED
:10455000808080008080800020203F21200001009A
:1045600000008080808080000033242424241900EF
:10457000008080E0808000000000001F20200000FC
:104580008080000000808000001F202020103F203D
:10459000808080000080808000010E3008060100CD
:1045A00080800080008080800F300C030C300F0072
:1045B00000808000808080000020312E0E3120009D
:1045C000808080000080808080818E7018060100CD
:1045D00000808080808080000021302C22213000EB
:1045E00000000000807C020200000000003F40400C
:1045F00000000000FF00000000000000FF000000BD
:104600000002027C800000000040403F00000000EB
:104610000006010102020404000000000000000086
:10462000000000000000000000000000000000008A
:10463000000000000000000000000000000000007A
:10464000000000000000000000F0F0F0000000009A
:104650000000000000017F010000000000000000D9
:10466000001C1C1C0000000000008060301C8C60DE
:10467000301C0C00000000000000000000000000E2
:10468000000000000000000000000000000000E04A
:104690000000000000E000000086E69F8686868617
:1046A000E69F860000011F01010101011F010100B9
:1046B000000080C06020F820E0C000000000030778
:1046C0000C18FF70E18100000000070F10107F1030
:1046D0000F0700008060206080000000E0200000E4
:1046E0000F3020309F70DC371030C0000000100EFB
:1046F00003000718101807000000C02020E0C000C9
:104700000000000080E01F38E88703C43C0400007C
:10471000070F1810100B070D1010080000808C4CAC
:104720003800000000000000000000000000000051
:104730000000000000000000000000000000000079
:1047400000000000000080E03008040000000000CD
:1047500000FEFF0100000000000000000000030F49
:104760001820400000040830E08000000000000035
:104770000000000001FFFE000000000000402018C3
:104780000F03000000000000000000000000C00057
:1047900000000000004266663C18FF183C66664256
:1047A0000000000000000300000000000000000006
:1047B0000000800000000000001010101010FF101A
:1047C00010101010000000000000030000000000A6
:1047D00000000000000000000000000000000000D9
:1047E000000000000000000000808C4C3800000039
:1047F00000000000000000000000000000000000B9
:104800000010101010101010101010000000000008
:104810000000000000000000000000000000000098
:104820000000000000000000000000000000000088
:1048300000001C1C1C000000000000000000000024
:1048400000000000E0380C000000000080701C0335
:10485000000000000060380E0100000000000000B1
:10486000000080C060202060C080000000FEFF01CA
:104870000000000001FFFE000001070E18101018D4
:104880000E0701000000808080C0E00000000000F2
:104890000000000000FFFF000000000000001010FA
:1048A000101F1F10101000000080402020202060EA
:1048B000C080000000030300804020381F07000074
:1048C000001C1A1918181818181F00000080C020A2
:1048D000202060C080000000000303001010182F8B
:1048E000E780000000070F10101010180F070000DD
:1048F000000000000000C0E0F000000000C0B08830
:10490000868180FFFF808000000000000010101FE3
:104910001F1010000000E0606060606060600000D8
:1049200000003F1008080818F0E0000000070B1016
:104930001010101C0F030000000080C04020202039
:10494000E0C0000000FCFF211008080818F0E0009B
:104950000001070C18101010080F03000000C0E041
:104960006060606060E06000000003000000E0182C
:104970000700000000000000001F1F0000000000F2
:104980000080C0602020202060C080000087EF2CC5
:104990001818303068CF830000070F08101010106F
:1049A000180F07000000C0C020202020C080000099
:1049B000001F3F604040402010FFFE0000000C1C24
:1049C000101010080F03000000000000000000009D
:1049D0000000000000000000000E0E0E00000000AD
:1049E00000000000001C1C1C000000000000000073
:1049F000000000000000000000000000000C0C009F
:104A00000000000000000000005838000000000016
:104A1000000000000000008040201000000010286E
:104A200044820100000000000000000000000102BC
:104A3000040810000000000000000000000000005A
:104A4000008484848484848484848400000000003E
:104A50000000000000000000000010204080000066
:104A60000000000000000000000001824428100047
:104A700000001008040201000000000000C0202017
:104A80001010101030E0C0000003030000F0100808
:104A90000C070300000000001C1C1C0000000000AC
:104AA000000000C0406020202040C00000FCFF014A
:104AB000F00E03C1FE03807F0001070E08111110E4
:104AC000110904020000000080E0E0000000000086
:104AD0000000807C4340477FF880000010181F10C2
:104AE00000000000131F1C1020E0E02020202060A8
:104AF000C080000000FFFF10101010182FE780008A
:104B0000101F1F1010101010180F0700000080C099
:104B1000402020202060E00000FCFF010000000099
:104B2000000001000001070E181010100804030017
:104B300020E0E02020202040C080000000FFFF0097
:104B40000000000001FFFE00101F1F1010101808C9
:104B50000E07010020E0E0202020202020608000BF
:104B600000FFFF101010107C00000000101F1F102D
:104B7000101010101018060020E0E0202020202047
:104B80006060800000FFFF101010107C000001002A
:104B9000101F1F100000000000000000000080C077
:104BA0006020202040E0000000FCFF0100004040A9
:104BB000C0C140400001070E181010100F0F000078
:104BC00020E0E0200000000020E0E02000FFFF10D7
:104BD0001010101010FFFF00101F1F100000000029
:104BE000101F1F100000202020E0E02020200000E7
:104BF0000000000000FFFF00000000000000101097
:104C0000101F1F101010000000000000202020E0E6
:104C1000E020202000000000000000FFFF00000056
:104C20000060E0808080C07F3F00000020E0E02046
:104C3000000020A06020200000FFFF30187CE3C0AF
:104C400000000000101F1F10000001131F1C18108F
:104C500020E0E020000000000000000000FFFF0056
:104C60000000000000000000101F1F1010101010A6
:104C70001018060020E0E0E000000000E0E0E02086
:104C800000FF013FFEC0E01E01FFFF00101F1000EB
:104C9000031F0300101F1F1020E0E0C000000000F1
:104CA0000020E02000FF0003071C78E08000FF00E8
:104CB000101F100000000000030F1F00000080C044
:104CC00060202060C080000000FEFF0100000000A6
:104CD00000FFFE000001070E181010180C0701005D
:104CE00020E0E0202020202060C0800000FFFF2086
:104CF00020202020301F0F00101F1F100000000078
:104D000000000000000080C060202060C080000023
:104D100000FEFF010000000000FFFE000001070E82
:104D20001111133C7C67210020E0E020202020208E
:104D300060C0800000FFFF101030F0D0080F0700A7
:104D4000101F1F10000000030F1C10100080C06017
:104D5000202020204040E00000070F0C18183030C1
:104D600060E08100001F0C0810101010180F0700E1
:104D70008060202020E0E0202020608001000000F2
:104D800000FFFF000000000100000000101F1F10C6
:104D90000000000020E0E020000000000020E020F3
:104DA00000FFFF00000000000000FF0000070F18D8
:104DB00010101010100807002060E0E02000000034
:104DC00020E060200000077FF88000807C03000066
:104DD00000000000071F1C070000000020E0E0208A
:104DE00000E0E0200020E0200007FFF8E01FFFFCCB
:104DF000E01F00000000031F0300011F030000006C
:104E0000002060E0A0000020E0602000000000031F
:104E10008F7CF8C6010000000010181E1300011757
:104E20001F1810002060E0E02000000020E060205B
:104E3000000001073EF8E018070000000000001025
:104E4000101F1F101000000000806020202020A0F4
:104E5000E0E0200000000000C0F03E0F0300000072
:104E600000101C1F17101010101806000000000082
:104E700000FC0404040404000000000000FF000023
:104E80000000000000000000007F40404040400063
:104E9000000010E000000000000000000000000022
:104EA000031C608000000000000000000000000300
:104EB0000C70800000000404040404FC00000000E6
:104EC00000000000000000FF000000000000404063
:104ED0004040407F0000000000000010080C040C5F
:104EE00008100000000000000000000000000000AA
:104EF00000000000000000000000000000000000B2
:104F000000000000000000000000000000000000A1
:104F10000000000080808080808080808080808091
:104F20000000000404080800000000000000000069
:104F30000000000000000000000000000000000071
:104F40000000000000000000000000000000000061
:104F5000000098D844642424FCF80000000F1F18B7
:104F6000101010081F1F10180020E0F000000000B3
:104F7000000000000000FFFF180804040CF8F00017
:104F800000001F0F18101010180F03000000000081
:104F9000000000000000000000E0F8180404043CD9
:104FA0003800000000030F0C10101010080600005D
:104FB0000000000000000020E0F0000000E0F81C0D
:104FC00004040408FFFF000000030F18101010086D
:104FD0001F0F08000000000000000000000000009B
:104FE0000000E0F8484444444C7870000000030F8F
:104FF0000C181010100804000000000080C0602091
:1050000020E0C00000040404FFFF040404040000C6
:10501000000010101F1F1010100000000000000002
:105020000000000000000000000070F88C04048CF8
:10503000F874040C007076CF8D8D8D89C87870005F
:105040000020E0F000000000000000000000FFFF72
:1050500008040404FCF8000000101F1F10000010DA
:105060001F1F100000000000006060000000000032
:105070000000040404FCFC0000000000000010100C
:10508000101F1F1010100000000000000000006042
:105090006000000000000000040404FCFC000000AC
:1050A0000000C0C08080C07F3F0000000020E0F012
:1050B00000000000000000000000FFFF80C0F41CA2
:1050C0000404000000101F1F1100031F1C1010001B
:1050D0000000202020E0F0000000000000000000A0
:1050E00000FFFF000000000000001010101F1F1044
:1050F0001010000000000000000000000000000090
:1051000004FCFC0804FCFC0804FCFC00101F1F103D
:10511000001F1F10001F1F100000000000000000F3
:10512000000000000004FCFC08080404FCF8000077
:1051300000101F1F100000101F1F100000000000B3
:10514000000000000000000000E0F0180C04040C57
:1051500018F0E00000030F0C101010100C0F0300EB
:105160000000000000000000000000000004FCFC43
:10517000080404040CF8F0000080FFFF8890101071
:105180001C0F0300000000000000000000000000F1
:1051900000E0F81C04040408F8FC000000030F18E9
:1051A00010109088FFFF8000000000000000000049
:1051B00000000000040404FCFC100804040C0C00B3
:1051C0001010101F1F101010000000000000000041
:1051D000000000000000000000003078CCC484848F
:1051E000840C1C0000001E1810101011190F06006E
:1051F0000000000000C000000000000000040404E3
:10520000FFFF040404000000000000000F1F101046
:10521000100C000000000000000000000000000072
:105220000004FCFE00000004FCFE000000000F1F54
:10523000181010081F0F08000000000000000000F8
:105240000000000000040C3CFCC40000C43C0C0442
:1052500000000000010F1E0E010000000000000011
:105260000000000000000000043CFCC400E47CFCE2
:1052700084807C040000071F070000071F07000050
:105280000000000000000000000000000004041CFA
:105290007CE4C0341C0404000010101C1601131F11
:1052A0001C181000000000000000000000000000BA
:1052B00000040C3CFCC400C43C0404000000C0809A
:1052C000C1370E01000000000000000000000000D7
:1052D0000000000000001C0404C4F47C1C04000056
:1052E0000000101C1F17111010180E000000000005
:1052F000000000F80C04000000000000001028EF7F
:1053000000000000000000000000003F60400000BE
:10531000000000000000FF0000000000000000008E
:105320000000FF0000000000000000000000FF007F
:10533000000000000000040CF80000000000000065
:1053400000000000EF281000000000000000406096
:105350003F000000000000000018060202040810D0
:1053600020203008000000000000000000000000C5
:105370000000000000000000000000000800000025
:10538000010000000000000000000000000000001C
:1053900000000000100000000001000003000000F9
:1053A000000000003400C4410807090002000000AA
:1053B000E703000001000000000000000000000002
:1053C000FC54000000002020B00D00002801000067
:1053D0001C00000043000000F8FFFFFF0C0000006D
:1053E0000E0000000F0000002E0000001001000061
:1053F00043000000F8FFFFFF0040404040404040B5
:105400004040414141414140404040404040404097
:10541000404040404040404040050202020202023B
:10542000020202020202020202202020202020208A
:10543000202020020202020202029090909090909E
:10544000101010101010101010101010101010105C
:1054500010101010020202020202888888888888D0
:1054600008080808080808080808080808080808BC
:1054700008080808020202024000000000000000C4
:10548000000000000000000000000000000000001C
:10549000000000000000000000000000000000000C
:1054A00000000000000000000000000000000000FC
:1054B00000000000000000000000000000000000EC
:1054C00000000000000000000000000000000000DC
:1054D00000000000000000000000000000000000CC
:1054E00000000000000000000000000000000000BC
:0C54F000000000000000000000000000B0
:04000005000000C136
:00000001FF
